:020000040000FA
:0400000010EF00F00D
:100008004282F2A40AEF00F00CEF00F00EEF00F0CD
:100018008EEC03F042921100CFEF02F0156E5BEF09
:1000280000F00F50D8B41BEF00F01DEF00F023EFE5
:1000380000F0000E136E400E126E27EF00F0000E57
:10004800136E000E126E15501224146E74EF00F029
:1000580015C014F00F04D8A434EF00F036EF00F008
:100068003AEF00F0400E142674EF00F0020E0F185D
:10007800D8A441EF00F043EF00F047EF00F039500B
:10008800142674EF00F0030E0F18D8A44EEF00F0FA
:1000980050EF00F055EF00F03950400F142674EF80
:1000A80000F074EF00F015C014F074EF00F03A504F
:1000B800106E116A1150000AD8B465EF00F057EFBE
:1000C80000F01050010AD8B457EF00F0030AD8B472
:1000D80015EF00F0060AD8B42CEF00F057EF00F047
:1000E80059EC02F01450800923EC03F00FC038F0EB
:1000F80015C037F01200166E3B0E016E000E026E30
:1001080028EC02F016C03AF015C039F0000E376E30
:1001180037C038F09498949A929E000E176E000E8D
:100128000F6E640E0E6E3B50AFEC02F0030E53ECF4
:1001380001F0000E0F6E050E0E6E3B50AFEC02F094
:10014800030E53EC01F0000E0F6E010E0E6E3B50C5
:10015800AFEC02F0030E53EC01F0000E0F6E010E2F
:100168000E6E3B50AFEC02F0020E53EC01F0000EA5
:100178000F6E010E0E6E3B50AFEC02F0280E23EC12
:1001880003F059EC02F0080E23EC03F059EC02F0EE
:10019800010E23EC03F0000E0F6E030E0E6E3B50A3
:1001A800AFEC02F059EC02F0060E23EC03F059EC28
:1001B80002F00F0E23EC03F0172A010E1764E7EF85
:1001C80000F0E9EF00F093EF00F01200166E59EC22
:1001D80002F016503CEC03F0372A030E3A18D8A464
:1001E800F8EF00F0FAEF00F016EF01F0130E3764A5
:1001F80000EF01F002EF01F052EF01F0000E376E50
:10020800382A030E38640BEF01F00DEF01F00FEF01
:1002180001F0000E386E38C00FF0375012EC00F0C5
:1002280052EF01F0020E3A18D8A41DEF01F01FEFAB
:1002380001F03BEF01F0270E376425EF01F027EFBF
:1002480001F052EF01F0000E376E382A010E3864C3
:1002580030EF01F032EF01F034EF01F0000E386EAC
:1002680038C00FF0375012EC00F052EF01F03804AC
:10027800D8A441EF01F043EF01F052EF01F0270E4F
:10028800376449EF01F04BEF01F04DEF01F0000E3C
:10029800376E38C00FF0375012EC00F01200026EC3
:1002A8009496949494929490899E8B9A8B888B8838
:1002B80002B661EF01F065EF01F0016A012A66EF0D
:1002C80001F0016A0146014601468B500118F70BFF
:1002D80001188B6E02B473EF01F077EF01F0016A39
:1002E800012A78EF01F0016A014601468B50011896
:1002F800FB0B01188B6E02B284EF01F088EF01F05E
:10030800016A012A89EF01F0016A01468B50011840
:10031800FD0B01188B6E02B094EF01F098EF01F01D
:10032800016A012A99EF01F0016A8B500118FE0B4E
:1003380001188B6E8B981200026E02B6A6EF01F0C0
:10034800AAEF01F0016A012AABEF01F0016A014648
:10035800014601468B500118F70B01188B6E02B449
:10036800B8EF01F0BCEF01F0016A012ABDEF01F01E
:10037800016A014601468B500118FB0B01188B6E70
:1003880002B2C9EF01F0CDEF01F0016A012ACEEF08
:1003980001F0016A01468B500118FD0B01188B6EA4
:1003A80002B0D9EF01F0DDEF01F0016A012ADEEFBA
:1003B80001F0016A8B500118FE0B01188B6E1200B8
:1003C800026E02BEEAEF01F0EEEF01F0016A012AC7
:1003D800EFEF01F0016A0146014601468B50011812
:1003E800F70B01188B6E02BCFCEF01F000EF02F076
:1003F800016A012A01EF02F0016A014601468B50A9
:100408000118FB0B01188B6E02BA0DEF02F011EF09
:1004180002F0016A012A12EF02F0016A01468B50CC
:100428000118FD0B01188B6E02B81DEF02F021EFC9
:1004380002F0016A012A22EF02F0016A8B500118CA
:10044800FE0B01188B6E1200000E046E38EF02F0DE
:10045800042A040E0418D8A434EF02F036EF02F090
:1004680038EF02F058EF02F00450050D230EF32484
:10047800D96E000EF420DA6EDE04D8B446EF02F02E
:1004880048EF02F02CEF02F00450050D230EF32480
:10049800D96E000EF420DA6E010EDF6E01C0D9FFAE
:1004A80002C0DAFF04C0DFFF1200948694849482AD
:1004B8009480899E8B8A3B506DEC03F08B888B88E7
:1004C800000E82B6010E0E6E8B988B988B888B88E7
:1004D8008B988B983B5087EC02F001500210031068
:1004E8000410D8B47AEF02F07CEF02F07EEF02F04D
:1004F80086EF02F00E50D8A484EF02F086EF02F0E7
:1005080062EF02F012000D6EF29E33C009F034C0A3
:100518000AF035C00BF036C00CF0F28E0D50050D08
:100528001F0EF324D96E000EF420DA6EDECF05F02C
:10053800DECF06F0DECF07F0DECF08F00550095C0D
:10054800016E06500A58026E07500B58036E085089
:100558000C58046E1200146E14506DEC03F00EC0AB
:1005680010F00FC011F0000E11BEFF0E126E136EC8
:10057800145087EC02F01050015C115002581250D0
:10058800035813500458D8A0CCEF02F0CEEF02F075
:10059800B3EF02F01200500EF66E070EF76E000E63
:1005A800F86E00EE3CF010EE06F00900F5CFEEFF15
:1005B800E550E150FAE100EE1FF01D0EEE6AE80684
:1005C800FDE142904292000EF86E000109EF03F03F
:1005D800000E016E0150050D230EF324D96E000E96
:1005E800F420DA6EDF6A012A030E0164FEEF02F0DE
:1005F80000EF03F0EEEF02F0820ED56ED80ED76E44
:10060800F00ED66EF294F28A12009AEC03F0A4EC83
:1006180003F0000E0F6E000E12EC00F020EE3CF01E
:1006280010EE19F0050EDBCFE3FFE806FCE2190E29
:10063800176E000E186E55EC03F010EF00F0036E05
:100648009496949494929490899E8B9A8B88035054
:10065800E4EC01F08B888B988B988B880350A0EC86
:1006680001F08B888B9894869484948294801200ED
:10067800036E9496949494929490898E8B9A8B8816
:100688000350E4EC01F08B888B988B988B8803508F
:10069800A0EC01F08B888B98948694849482948043
:1006A800120060EF03F017C0D9FF18C0DAFFDF505F
:1006B800EAEC00F0174A182A17C0D9FF18C0DAFF69
:1006C800DF50D8A46AEF03F06CEF03F057EF03F0A4
:1006D8001200016EF29E0150050D1F0EF324D96E13
:1006E800000EF420DA6E33C0DEFF34C0DEFF35C002
:1006F800DEFF36C0DEFFF28E120059EC02F0010E6A
:1007080023EC03F0000E0F6E030E0E6E3B50AFECA1
:1007180002F01200F00ED66ED80ED76EF294010ECB
:100728003326000E3422352236221200ECEC02F079
:10073800100E156E020E7FEC00F081EC03F0120033
:0E074800D09EF28EF28C12004B4556494E00A8
:020000040020DA
:08000000FFFFFFFFFFFFFFFF00
:020000040030CA
:0E000000FF06191EFF8181FF03C003E00340CD
:00000001FF
